{
  "contractName": "TokenSales",
  "abi": [
    {
      "inputs": [
        {
          "internalType": "address",
          "name": "_tokenAddress",
          "type": "address"
        }
      ],
      "payable": false,
      "stateMutability": "nonpayable",
      "type": "constructor"
    },
    {
      "constant": true,
      "inputs": [],
      "name": "ntfAddress",
      "outputs": [
        {
          "internalType": "contract ERC721Full",
          "name": "",
          "type": "address"
        }
      ],
      "payable": false,
      "stateMutability": "view",
      "type": "function"
    },
    {
      "constant": true,
      "inputs": [
        {
          "internalType": "uint256",
          "name": "",
          "type": "uint256"
        }
      ],
      "name": "tokenPrice",
      "outputs": [
        {
          "internalType": "uint256",
          "name": "",
          "type": "uint256"
        }
      ],
      "payable": false,
      "stateMutability": "view",
      "type": "function"
    },
    {
      "constant": false,
      "inputs": [
        {
          "internalType": "uint256",
          "name": "_tokenId",
          "type": "uint256"
        },
        {
          "internalType": "uint256",
          "name": "_price",
          "type": "uint256"
        }
      ],
      "name": "setForSale",
      "outputs": [],
      "payable": false,
      "stateMutability": "nonpayable",
      "type": "function"
    }
  ],
  "bytecode": "0x608060405234801561001057600080fd5b506040516105863803806105868339818101604052602081101561003357600080fd5b8101908080519060200190929190505050806000806101000a81548173ffffffffffffffffffffffffffffffffffffffff021916908373ffffffffffffffffffffffffffffffffffffffff160217905550506104f2806100946000396000f3fe608060405234801561001057600080fd5b50600436106100415760003560e01c806317fcfe2214610046578063a8394d071461007e578063d4ddce8a146100c8575b600080fd5b61007c6004803603604081101561005c57600080fd5b81019080803590602001909291908035906020019092919050505061010a565b005b610086610451565b604051808273ffffffffffffffffffffffffffffffffffffffff1673ffffffffffffffffffffffffffffffffffffffff16815260200191505060405180910390f35b6100f4600480360360208110156100de57600080fd5b8101908080359060200190929190505050610476565b6040518082815260200191505060405180910390f35b60008060009054906101000a900473ffffffffffffffffffffffffffffffffffffffff1673ffffffffffffffffffffffffffffffffffffffff16636352211e846040518263ffffffff1660e01b81526004018082815260200191505060206040518083038186803b15801561017e57600080fd5b505afa158015610192573d6000803e3d6000fd5b505050506040513d60208110156101a857600080fd5b810190808051906020019092919050505090503373ffffffffffffffffffffffffffffffffffffffff168173ffffffffffffffffffffffffffffffffffffffff161461025c576040517f08c379a00000000000000000000000000000000000000000000000000000000081526004018080602001828103825260198152602001807f63616c6c6572206973206e6f7420746f6b656e206f776e65720000000000000081525060200191505060405180910390fd5b600082116102d2576040517f08c379a00000000000000000000000000000000000000000000000000000000081526004018080602001828103825260168152602001807f7072696365206973207a65726f206f72206c6f7765720000000000000000000081525060200191505060405180910390fd5b6000809054906101000a900473ffffffffffffffffffffffffffffffffffffffff1673ffffffffffffffffffffffffffffffffffffffff1663e985e9c582306040518363ffffffff1660e01b8152600401808373ffffffffffffffffffffffffffffffffffffffff1673ffffffffffffffffffffffffffffffffffffffff1681526020018273ffffffffffffffffffffffffffffffffffffffff1673ffffffffffffffffffffffffffffffffffffffff1681526020019250505060206040518083038186803b1580156103a457600080fd5b505afa1580156103b8573d6000803e3d6000fd5b505050506040513d60208110156103ce57600080fd5b8101908080519060200190929190505050610434576040517f08c379a000000000000000000000000000000000000000000000000000000000815260040180806020018281038252602f81526020018061048f602f913960400191505060405180910390fd5b816001600085815260200190815260200160002081905550505050565b6000809054906101000a900473ffffffffffffffffffffffffffffffffffffffff1681565b6001602052806000526040600020600091509050548156fe746f6b656e206f776e657220646964206e6f7420617070726f766520546f6b656e53616c657320636f6e7472616374a265627a7a723158202778aaca34fa0a5af461f097efe17d1e8f7c4f7900c8cc54cbfa9306c04f179464736f6c63430005100032",
  "source": "pragma solidity ^0.5.0;\r\n\r\nimport \"openzeppelin-solidity/contracts/token/ERC721/ERC721Full.sol\";\r\n\r\ncontract TokenSales {\r\n  ERC721Full public ntfAddress;\r\n  mapping(uint256 => uint256) public tokenPrice;\r\n\r\n  constructor(address _tokenAddress) public{\r\n      ntfAddress=ERC721Full(_tokenAddress);\r\n  }\r\n\r\n  function setForSale(uint256 _tokenId, uint256 _price) public {\r\n      address tokenOwner = ntfAddress.ownerOf(_tokenId);\r\n      require(tokenOwner == msg.sender, \"caller is not token owner\");\r\n      require(_price > 0, \"price is zero or lower\");\r\n      require(ntfAddress.isApprovedForAll(tokenOwner, address(this)),\"token owner did not approve TokenSales contract\");\r\n      tokenPrice[_tokenId]= _price;\r\n\r\n  }\r\n}",
  "sourcePath": "/Users/kimdoheon/Desktop/Coding/web/NFT/contracts/TokenSales.sol",
  "compiler": {
    "name": "solc",
    "version": "0.5.16+commit.9c3226ce.Emscripten.clang"
  },
  "schemaVersion": "3.3.3",
  "updatedAt": "2021-01-20T17:08:33.117Z",
  "networkType": "ethereum",
  "devdoc": {
    "methods": {}
  },
  "userdoc": {
    "methods": {}
  }
}